:020000040000FA
:060000000A128A110C280F
:10000800FE00030EF0000A08F1000A128A11C72840
:100018000A128A110F280A128A11D7200A128A1185
:10002800F700F60183010A128A111A280A128A11A6
:1000380061200A128A112130F500F50B212883125C
:1000480003139F182828292836281E08F500750844
:10005800F600760888002130F500F50B3128831268
:1000680003139F14061C39283A2849287708031DCA
:100078003E283F2849280530F5007508F200760823
:100088000A128A1199200A128A1100308312031366
:1000980006180130F70086185228532854286300A0
:1000A80005300A128A11B6200A128A118312031324
:1000B80087001F280A128A110C282030831603177C
:1000C8008800890107308316031386008701880199
:1000D8008312031386018701880183160313811392
:1000E800073095008B150B10043096008B130F0802
:1000F8008F3960388F000F149F131F129F128312BD
:1001080003131F083F3940389F001F08C3391438AC
:100118009F002130F200F20B8F28831203131F1463
:100128002130F200F20B96280800F30072088312BF
:1001380003178D0073088C00831603178C130C1596
:100148008B1355308D00AA308D008C148312031345
:100158000D1EAF28B028AA280D12831603170C15F8
:100168008B130800F3007308831203178D0083169E
:1001780003178C130C14831203170C08F20072086F
:10018800F400740808000B1CCA28CB28D028831256
:100198000313060886000B1071088A00700E83008E
:0801A800FE0E7E0E0900013479
:04400E00D438FF3F64
:00000001FF
