:060000000A128A11142906
:10000800F000030EF1000B1810200B191820710EC8
:100018008300F00E700E090003138312061C850A74
:10002800861C85030B100800031383123D308100E2
:100038000B1122182328260887008814272825084A
:0C0048008700081427280130A2060800D9
:100200008A010A140F3982073F3406345B344F34B5
:1002100066346D347D3407347F346F3477347C3406
:1002200039345E34793471344C21602143213121D9
:10023000031383120530A10023212A210618672108
:1002400086186F211A2921080F39A300210E0F39B2
:10025000A400080023080021A50024080021A6000E
:1002600008000313831681128111011581140110F6
:1002700003138312031383123D3081000B118B177C
:100280008B160B1108000313831616149614031310
:10029000831206080B1008008316031788018901D2
:1002A000831603138501870106148614081088102D
:1002B0008113151495148312031385018801080016
:1002C000031383160F178F160F120F14080006184A
:1002D0006729A00A2008A10023212A2108008618E6
:1002E0006F29A0032008A10023212A210800C5307E
:1002F000A8007D21A80B79290800A530A900A90B29
:040300007F29080049
:04400E00C430FF3F7C
:00000001FF
