:060000000A128A11142906
:10000800F000030EF1000B190E20710E8300F00EA4
:10001800700E0900031383123D3081000B11880113
:1000280021181A282408870008141D282508870085
:0800380088140130A106080044
:100200008A010A140F3982073F3406345B344F34B5
:1002100066346D347D3407347F346F3477347C3406
:1002200039345E34793471342C213A21412103135D
:1002300083122430A0001E212521192920080F39FE
:10024000A200200E0F39A300080022080021A400FC
:1002500023080021A50008000317831688018901DF
:100260000313831687010810881003138312870174
:1002700088010800031383160F138F160F120F1433
:1002800008000313831681128111011581140114D2
:10029000031383123D3081000B118B178B160B114A
:0202A000080054
:04400E00C430FF3F7C
:00000001FF
