:020000040000FA
:060000000A128A110C280F
:10000800FE00030EF1000A08F2000A128A11FD2808
:100018000A128A110F280A128A115C210A128A11FF
:10002800F900F701F80183010A128A111B280A1244
:100038008A1197200A128A11831203139F18252800
:1000480026285D281F0CF600760C0F39053A031D8B
:100058002E282F283E281E08F6007608F7002130A3
:10006800F600F60B3528831203131F08C339183816
:100078009F0055281F0CF600760C0F39063A031D11
:100088004628472855281E08F6007608F70021302C
:10009800F600F60B4D28831203131F08C3391438D2
:1000A8009F001030F600F60B572800008312031348
:1000B8009F14061C6028612873287908031D652889
:1000C800662873288316031386160530F60076080B
:1000D800F30077080A128A112E210A128A110030B9
:1000E8008312031306180130F90086187C287D282E
:1000F8008128831603130617630005300A128A1134
:100108004B210A128A1183120313850010300A1238
:100118008A114B210A128A1183120313880020289E
:100128000A128A110C286030831603178800890187
:10013800831603138501073086008701880183121F
:1001480003138501860187018801831603130F179E
:100158008F160F120F149F131F121F1283120313EF
:100168001F179F131F08C33914389F001030F3005E
:10017800F30BBC280000831203131F148316031308
:10018800071587147D3092003F30831203139705BB
:100198001708F0390C3897001D08F0390C389D0005
:1001A8005D309500171697165D309B001D169D163D
:1001B8008C100330920412158C1CE328E428E028E4
:1001C8008C108316031307118710831203130C1363
:1001D800831603130C170B178B1781130730950021
:1001E8008B150B10043096000230F3007308F800EA
:1001F8000800831203130C1F022903292729023040
:100208007806031D0829092910291E08F000031083
:10021800700C233E95001B297803031D142915290A
:100228001B291E08F0000310700C233E9B000130B0
:10023800F8027808031D2129222926290230F00016
:100248007008F8000C1372088A00710E8300FE0E05
:100258007E0E0900F4007308831203178D007408DA
:100268008C00831603178C130C158B1355308D00D7
:10027800AA308D008C14831203130D1E44294529BE
:100288003F290D12831603170C158B170800F4006D
:100298007408831203178D00831603178C130C142C
:1002A800831203170C08F3007308F500750808009B
:0202B80001340F
:04400E00D420FF3F7C
:00000001FF
