:060000000A128A11142906
:100200008A010A140F3982073F3406345B344F34B5
:1002100066346D347D3407347F346F3477347C3406
:1002200039345E347934713430213721212103137C
:1002300083121C214C2119290B1D1C292C21850AF4
:100240000800031383168112811101158114011016
:10025000031383122C2108000C3081000B110800BD
:10026000031383160F138F160F160F1008000317B2
:1002700083168801890103138316850103138312F2
:100280008501031383168801061486140313831251
:1002900088010030A2000800061851218618582154
:1002A000080006185129A20A220800218800080027
:0E02B00086185829A2032208002188000800A1
:04400E00C430FF3F7C
:00000001FF
