:020000040000FA
:060000000A128A110C280F
:10000800FE00030EF2000A08F3000A128A111428EF
:100018000A128A110F28F60183010A128A11E228AE
:10002800831203130C1F19281A287E28023076061B
:10003800031D1F28202847281E0886000608F000F0
:100048000310700C233E950006182B282F288312C6
:100058000313971632288312031397128316031378
:100068001E08F00007300310F00CFF3E031D372870
:100078007008F100F10E8312031317087106EF39A7
:100088007106970072287603031D4B284C287228A6
:100098001E0888000808F0000310700C233E9B001F
:1000A800081857285B288312031397165E288312B3
:1000B80003139712831603131E08F000073003106A
:1000C800F00CFF3E031D63287008F100F10E831247
:1000D800031317087106EF39710697000130F6020D
:1000E8007608031D782879287D280230F0007008EA
:1000F800F6000C1373088A00720E8300FE0E7E0E43
:10010800090003308316031788008901FF3083161E
:100118000313850086018701880183120313850173
:10012800860187018801831603130F178F160F1294
:100138000F149F131F121F12831203131F179F13ED
:10014800C3309F051030F400F40BA8280000831278
:1001580003131F1483160313071587147D309200A9
:100168003F308312031397051708F0390C389700AE
:100178001D08F0390C389D005D309500171697164C
:100188005D309B001D169D168C10033092041215CD
:100198008C1CCF28D028CC288C1083160313071169
:1001A8008710831203130C13831603130C170B17F2
:1001B8008B170230F4007408F60008000A128A113E
:1001C80085200A128A11831203139F18EC28ED2840
:1001D800E7281F0CF500750C0F39003A031DF528A8
:1001E800F628FB281F08C33904389F0006291F0C6E
:1001F800F500750C0F39013A031D03290429062956
:10020800C3309F051030F500F50B08290000831254
:0C02180003139F14E7280A128A110C2817
:04400E00D438FF3F64
:00000001FF
