:020000040000FA
:100000000A128A11FC2F00308A000408840A820731
:10001000003431342934203444346534733470343A
:100020006C34653467346134723420346334613441
:10003000643465346E34613420346434653420347F
:1000400063346134723461346334743465347234CB
:100050006534733420340D340034C234BF34513429
:100060007534653420346134633463346934C334A3
:10007000B3346E342034643465347334653461349D
:10008000203465346A3465346334753474346134CF
:1000900072343F3420340D34003433342934203466
:1000A000433461346D3462346934613472342034E1
:1000B00050344F3452345434443420340D340D34DD
:1000C0000034323429342034433461346D346234A2
:1000D000693461347234203450344F3452345434DF
:0800E000413420340D340034DA
:100EE800F000782F70089900831203130C1A7D2FD5
:100EF8007E2F762F0800F300F101F201962F71087A
:100F0800730784000A128A1103200A128A110A122E
:100F18008A1174270A128A110130F1070318F20A9C
:100F28000030F2077108730784000A128A1103203F
:100F38000A128A11003A031DA22FA32F832F08003B
:100F480083160317880189018316031387018717FE
:100F5800850188018312031385018701880183169F
:100F680003130F178F120F120F141813181283166A
:100F780003178715831603131815193099009A015A
:100F88008312031398171813181683160313981649
:100F980008000A128A11A4270A128A11A330F50040
:100FA8005530F400F40BD62FF50BD62F25300A1246
:100FB8008A117F270A128A1101300A128A117F27A3
:100FC8000A128A1159300A128A117F270A128A11C5
:100FD80045300A128A117F270A128A1183120313D5
:100FE8008C1EF72FF82FF22FD22F0A128A11002801
:080FF80083010A128A11CD2FBA
:04400E00D420FF3F7C
:00000001FF
