:060000000A128A11142906
:10000800F000030EF1000B190E20710E8300F00EA4
:10001800700E09003221A00A2008023C031D152891
:04002800A00108002B
:100200008A010A140F3982073F3406345B344F34B5
:1002100066346D347D3407347F346F3477347C3406
:1002200039345E34793471341F212A213821031383
:100230008312880A0808002188000E2019298316D5
:10024000031788018901831603138801831203139E
:1002500088010800031383160F138F160F160F1053
:1002600032210800031383120C3081000B110800A7
:080270008B178B160B1108001F
:04400E00C430FF3F7C
:00000001FF
