:060000000A128A1100291A
:1002000003178316880189010313831605148601D9
:1002100088010313831286018801332105181421F4
:1002200020211A2126210D2985191429060A0F39A2
:100230008600080005191A29060B0F3986000800E8
:1002400085182029080A0F39880008000518262972
:10025000080B0F398800080014212021051A08070F
:100260000F3986000800C630A1003921A10B3529BD
:0C0270000800A530A000A00B3B290800EE
:04400E00C130FF3F7F
:00000001FF
