:060000000A128A1100291A
:10000800F100030EF0000B1C1828221C0C281228E3
:10001800861C850A061C22140B101828861C8503CA
:10002800061C22100B101828700E8300F10E710E9A
:020038000900BD
:100200001A212C210F21031383123321221C0929C7
:100210000C290714871005290710871405290313D3
:100220008316161496140313831206080B108B17EB
:100230008B150800031783168801890103138316A1
:100240008501061486140710871081131514951460
:100250000313831285010800031383160F178F12EF
:100260000F120F1408009630A000A00B35290800CB
:04400E00C430FF3F7C
:00000001FF
