:060000000A128A1100291A
:10000800F100030EF0000B1C2528221C0D281528D2
:100018001D28861E850A061F8501061E22140B1040
:100028002528861E8501061F8503061E22100B1033
:100038002528861E8501061F850A061E22140B1018
:0C0048002528700E8300F10E710E0900D7
:10020000222137211621031383123E21221C0A29A1
:100210000E29122986140611861105298610061545
:1002200086110529861006118615052903138316E4
:100230001616961616170313831206080B108B1743
:100240008B15080003178316880189010313831691
:10025000850106168616061786100611861181136B
:10026000151695161517031383128501080003133D
:1002700083160F178F120F120F1408009630A0006C
:06028000A00B402908005C
:04400E00C430FF3F7C
:00000001FF
