:020000040000FA
:060000000A128A11122809
:10000800FE00030EF1000408F2000A08F300831250
:1000180003137F08F4000A128A11EA280A128A11C7
:100028001528F90183010A128A1183288312031300
:10003800AC01A71F202821282828A609A709A60A55
:100048000319A70AAC01AC0AA91F2B282C283528AC
:10005800A809A909A80A0319A90A0130AA002A08A7
:10006800AC06AD01AE012608270403193C283D283B
:100078007428AB01AB0A4B2801300310A60DA70D5D
:10008800FF3E031D41280130AA002A08AB07A71F1D
:100098004E284F28402801300310AD0DAE0DFF3E0D
:1000A800031D502827082902031D5C28260828025A
:1000B800031C5F28602867282608A8022708031C55
:1000C800A903A9022D1401300310A70CA60CFF3EAA
:1000D800031D68280130AB02031D732874284F28BC
:1000E8002C080319782879287E28AD09AE09AD0AAD
:1000F8000319AE0A2E08A7002D08A60008000A1248
:100108008A1151210A128A11643083120313A6003E
:100118000030A7000508AF00B0012F08A80030087C
:10012800A9000A128A111A200A128A1183120313CB
:100138002608B1003108F6000A30A6000030A700F2
:100148007608AF00B0012F08A0003008A1009C304D
:10015800A200FF30A3000A128A1183210A128A1111
:100168008312031305082007A80021080318210A91
:10017800A9000A128A111A200A128A11831203137B
:100188002608B1003108F7009C30AF002F08A00006
:1001980076080A128A11AA210A128A1183120313F5
:1001A800B000F630B1003108A00077080A128A11B1
:1001B800AA210A128A118312031330070507B20015
:1001C8003208F80088280A128A1112280B1DED2817
:1001D800EE2833290130F0007008880786010430C2
:1001E8007506031DF828F928042986177608013EA4
:1001F80084000A128A11C1210A128A11870025294E
:1002080003307506031D09290A29152906177708D9
:10021800013E84000A128A11C1210A128A1187003C
:10022800252902307506031D1A291B29252986163A
:100238007808013E84000A128A11C1210A128A1123
:1002480087000130F5027503031D2B292C2930295D
:100258000430F0007008F5000B11EC3081000B1C25
:1002680036293729462906183A293B293F290130DA
:10027800F00070088507861842294329452901306E
:1002880085020B107408FF0073088A007208840046
:10029800710E8300FE0E7E0E090083160317880177
:1002A80089018316031385010330860088018701BD
:1002B80083120313860185018801870183160313BE
:1002C800811303309600033095000F178F160F1215
:1002D8000F1481128111011581140114EC3083125D
:1002E800031381000B118B160B148B158B1704301D
:1002F800A0002008F500F801F701F60108008312B4
:100308000313A401A501201C8A298B2991292208FD
:10031800A4070318A50A2308A50701300310A20D96
:10032800A30DFF3E031D922901300310A10CA00C60
:10033800FF3E031D992920082104031DA429A5298E
:1003480087292508A1002408A000080083120313A8
:10035800A300A201231CB129B229B6292008A100B3
:100368002108A2070310A00D0310A30C2308031DE6
:10037800BE29BF29AE292208080001308A000408D6
:10038800840A820700343F3406345B344F346634C1
:080398006D347D3407347F341D
:04400E00D438FF3F64
:00000001FF
