:060000000A128A11142906
:100200008A010A140F3982073F3406345B344F34B5
:1002100066346D347D3407347F346F3477347C3406
:1002200039345E34793471341D212C210313831247
:100230000618332186183A211829031783168801D6
:10024000890103138316880106148614031383128D
:1002500088010030A2000800031383160F138F16C5
:100260000F120F14080006183329A20A22080021D1
:100270008800080086183A29A20322080021880075
:100280000800C830A1004721A10B43290800FA301B
:08029000A000A00B49290800A1
:04400E00C430FF3F7C
:00000001FF
