:020000040000FA
:060000000A128A11122809
:10000800FE00030EF6000408F7000A08F800831241
:1000180003137F08F9000A128A111E280A128A118E
:100028001528F001F101F201F301F40183010A122C
:100038008A119C280C1F212822284C281F0CF50007
:10004800750C0F390C3A031D2A282B2837281E084F
:1000580085001F08C33928389F001030F500F50BBC
:100068003328000049281F0CF500750C0F390A3A8F
:10007800031D3F28402849281E08F5007508F00090
:100088001F08C33930389F003128831203130C131B
:100098000B1D4F2850289128880104307106031D34
:1000A80056285728622808147208013E84000A124C
:1000B8008A1104220A128A118700832803307106E4
:1000C800031D67286828732888147308013E840074
:1000D8000A128A1104220A128A1187008328023020
:1000E8007106031D78287928832808157408013EAD
:1000F80084000A128A1104220A128A118700013028
:10010800F1027103031D89288A288E280430F5001E
:100118007508F1000B11EC3081007908FF007808B0
:100128008A0077088400760E8300FE0E7E0E090092
:100138000A128A117E210A128A110F3083120313C0
:10014800AF00AF0BA528A828831203139F146430AF
:1001580083120313A6000030A7007008AF00B00197
:100168002F08A8003008A9000A128A1115210A12BE
:100178008A11831203132608B1003108F2000A30ED
:10018800A6000030A7007208AF00B0012F08A00039
:100198003008A1009C30A200FF30A3000A128A1187
:1001A800C6210A128A117008831203132007A800B7
:1001B80021080318210AA9000A128A1115210A1216
:1001C8008A11831203132608B1003108F3009C300A
:1001D800AF002F08A00072080A128A11ED210A1236
:1001E8008A1183120313B000F630B1003108A00061
:1001F80073080A128A11ED210A128A118312031355
:1002080030077007B2003208F4009F140F308312D1
:100218000313AF00AF0B0E291129AB280A128A115C
:10022800122883120313AC01A71F1B291C29232999
:10023800A609A709A60A0319A70AAC01AC0AA91FAF
:10024800262927293029A809A909A80A0319A90ACA
:100258000130AA002A08AC06AD01AE012608270421
:100268000319372938296F29AB01AB0A4629013010
:100278000310A60DA70DFF3E031D3C290130AA005F
:100288002A08AB07A71F49294A293B29013003102F
:10029800AD0DAE0DFF3E031D4B2927082902031D96
:1002A800572926082802031C5A295B29622926088F
:1002B800A8022708031CA903A9022D140130031062
:1002C800A70CA60CFF3E031D63290130AB02031DDA
:1002D8006E296F294A292C08031973297429792949
:1002E800AD09AE09AD0A0319AE0A2E08A7002D08FC
:1002F800A6000800831603178801143089008316A6
:1003080003138501870103308600880183120313D4
:100318008501860187018801831603130F178F163D
:100328000F120F1481128111011581140114EC3080
:100338008312031381000B118B161F119F111F16B7
:100348009F161F140F3083120313A000A00BAA29B5
:10035800AD29831603131F129F12831203131F174D
:100368009F178B170B170C13831603130C179F1368
:10037800043083120313A0002008F100F401F301F4
:10038800F201080083120313A401A501201CCD2942
:10039800CE29D4292208A4070318A50A2308A507EB
:1003A80001300310A20DA30DFF3E031DD529013016
:1003B8000310A10CA00CFF3E031DDC29200821041A
:1003C800031DE729E829CA292508A1002408A00057
:1003D800080083120313A300A201231CF429F529A2
:1003E800F9292008A1002108A2070310A00D031075
:1003F800A30C2308031D012A022AF1292208080058
:1004080002308A000408840A820700343F34063424
:0E0418005B344F3466346D347D3407347F34EA
:04400E00D438FF3F64
:00000001FF
