:020000040000FA
:060000000A128A110C280F
:10000800FE00030EF0000A08F1000A128A116128A6
:100018000A128A110F2883010A128A11482801300E
:10002800831603178800FF308900831603138501A0
:100038008701033086008901831203138501870134
:1000480088018901831603130F178F160F120F14D7
:10005800831203131F119F111F169F161F141030B0
:10006800F200F20B35280000831603131F129F12AB
:10007800831203131F179F178B170B170C13831665
:1000880003130C179F1308000A128A1113200A126F
:100098008A111030F300F30B4F280000831203136A
:1000A8009F14831203139F141030F300F30B5A2884
:1000B800000055280A128A110C28831203130C1FFA
:1000C8006628672869281E0885000C1371088A00AD
:0A00D800700E8300FE0E7E0E09007C
:04400E00D438FF3F64
:00000001FF
