:060000000A128A11142906
:10000800A100030EA2000B180E20220E8300A10EE1
:10001800210E090003138312061C850A861C85031A
:040028000B100800B1
:100200008A010A140F3982073F3406345B344F34B5
:1002100066346D347D3407347F346F3477347C3406
:1002200039345E3479347134272139211E2140213B
:10023000031383120508002187001A29031383166C
:10024000161496140313831206080B100800831665
:10025000031788018901831603138501870106149A
:1002600086148113151495148312031385018701D5
:100270000800031383160F178F160F120F140800B0
:080280008B178B150B10080011
:04400E00C430FF3F7C
:00000001FF
