:100000000A128A110029A200030EA3000B180D206A
:10001000230E8300A20E220E090003138312061C76
:08002000850A861C85030B1004
:100200000F211F21062126210313831203138316B6
:10021000161496140313831206080B100800831695
:1002200003178801890183160313850106148614B8
:100230008113151495148312031385010800031309
:1002400083160F178F160F120F1408008B178B15BC
:040250000B10080087
:04400E00C430FF3F7C
:00000001FF
