:060000000A128A1100291A
:10000800F100030EF0000A08F2000B1821200B196A
:100018001220700E8300F10E710E09000313831273
:100028003D30A200220881000B11A00A2008053CDF
:10003800031D1F28A001850A080023088A01053925
:1000480082072A28302837283E284528061A4C28AF
:10005800A30A2208A1004C28861EA10A061FA10394
:10006800061EA30A4C28861EA10A061FA103061E07
:10007800A30A4C28861EA10A061FA103061EA30A6E
:100088004C28861EA301061B4C282108A200A301A8
:040098000B10080041
:10020000552168214921372103138312A3012308B3
:100210008A010A140539820711291D292129252956
:100220002929043089000B1D1329031383123D3043
:10023000A200220881000B110729023089002C2915
:10024000072906308900302907290130890034291F
:10025000072905308900072903308500850A080031
:100260000E308500850A080003308600080003135D
:100270008316811281110115811401140313831255
:100280003D30A200220881000B118B178B160B1139
:1002900008000313831616169616161703138312F7
:1002A00006080B108B178B1508000317831688019F
:1002B0008901031383168501890106168616061720
:1002C000811315169516151703138312850108005F
:0E02D000031383160F178F120F120F1408005E
:04400E00C430FF3F7C
:00000001FF
